:1000000002164143B30843B40843B31043B410434A
:10001000B30843B31053C0FE75BE2743C040439B93
:100020000143A880225388BFE4F58BF58D438840B7
:0100300022AD
:070033000213BF43E8402265
:10003B0002158CE4FF5388BFAF8DEFFEAD8B7C00B8
:10004B00E42DFFEC3EFE43884022E5E8540FFF22EF
:10005B000218E5AB07AA067F007E007D007C00AE90
:10006B0002AF037C037DFF12065EE47BFF7A0FF980
:10007B00F812052A22C29222020FF90203CEE8647B
:10008B0080F8E933E83360110460F0ED33EC337042
:10009B0009E8FCE9FDEAFEEBFF220460DED3EB9FEF
:1000AB00EA9EE99DE8C2E78CF0C2F795F0400CE8B8
:1000BB00CCF8E9CDF9EACEFAEBCFFB12039985D058
:1000CB00F05804700320D5B3E80470075002B2D582
:1000DB000203D892D5EC0460F7E4CCC0E0C398F8E7
:1000EB00603B94186008400DD0E0FB0203B0E4FBCA
:1000FB00FAC9FC8028E830E406E4C9FBE4CAFCE852
:10010B0030E305E4C9CACBFCE854076010F8C3E937
:10011B0013F9EA13FAEB13FBEC13FCD8F130F52FC0
:10012B00C3E49CFCEF9BFFEE9AFEED99FDD0E0FB48
:10013B00EF4E4D4C701222DB030203D5EC2CFCEF7F
:10014B0033FFEE33FEED33FDED30E7EB0203B0EFA3
:10015B002BFFEE3AFEED39FDD0E0FB50130BBB004D
:10016B00030203D8ED13FDEE13FEEF13FFEC13FCAC
:10017B000203B0EC4D6011E8497017ED33EC33041A
:10018B00600DE4FCFFFEFD22E933E8330470F80256
:10019B0003CE12039958046009E4CC24815006283D
:1001AB0050090203D82840030203D5C0E0EB4A7084
:1001BB0044B98006D0E0FB0203C4EF4E701CBD8037
:1001CB0008EBFFEAFEE9FD80EBE98DF0A4FEE5F01C
:1001DB00020267E9CDF9EAFEEBFFEF89F0A4FCE53B
:1001EB00F0CE89F0A42EFFE435F0CD89F0A42DFEDE
:1001FB00E435F08067EF4E7005BD80D780C3EF8B81
:10020B00F0A4ACF0EE8BF0A42CFCE435F0F8EF8A04
:10021B00F0A42CE5F038FCE433CB8DF0A42CFCE5FA
:10022B00F03BF8EE8AF0A42CFCE5F038F8E433CF81
:10023B0089F0A42CFCE5F038CF3400CE89F0A42F44
:10024B00FFE5F03EFEE433C98DF0A42EFEE5F03958
:10025B00CD8AF0A42FFFE5F03EFEE43DFD33D0E068
:10026B00FB50070BBB000F0203D8EC2CFCEF33FF4A
:10027B00EE33FEED33FD0203B00203D8EC5D0460F8
:10028B0005E8590470030203CE120399580460F673
:10029B00EC4860F2EC7004FDFEFF22C860DB2481A9
:1002AB00C85009C398600250060203D59850CAF58E
:1002BB0082E9294B4A7005AB820203C475F0007CBE
:1002CB001A7880C3EF9BEE9AED99400DC3EF9BFF1D
:1002DB00EE9AFEED99FDE842F0DC23ACF0D0E0FFA6
:1002EB00D0E0FED0E0FDAB8220E7101BEB60BAEC58
:1002FB002CFCEF33FFEE33FEED33FD0203B0E803CE
:10030B00F830E705C0F075F000EF2FFFEE33FEED90
:10031B0033FD40B830E7C280AA75F020800E75F02F
:10032B0010800575F0087D007E007F003392D5307C
:10033B00D5031205BCEC334010EF33FFEE33FEED6B
:10034B0033FDEC33FCD5F0ED22E5F0247EA2D51382
:10035B00CC92E7CDCEFF22EDD2E7CD33EC3392D565
:10036B0024814006E4FFFEFDFC22FCE4CFCECDCC85
:10037B0024E0501174FF80EDC3CC13CCCD13CDCE44
:10038B0013CECF13CF0470F030D5DE0205BCE9D20B
:10039B00E7C933E833F892D5EDD2E7CD33EC33FC34
:1003AB005002B2D522EC30E7100FBF000C0EBE008E
:1003BB00080DBD00040BEB6014A2D5EB13FCED9202
:1003CB00E7FD2274FFFCFDFEFF22E480F8A2D5744A
:1003DB00FF13FC7D80E480EFBB010689828A83E0FA
:1003EB00225002E722BBFE02E32289828A83E49336
:1003FB0022BB010CE58229F582E5833AF583E022E5
:10040B005006E92582F8E622BBFE06E92582F8E2D2
:10041B0022E58229F582E5833AF583E49322BB0139
:10042B000689828A83F0225002F722BBFE01F32257
:10043B00EF8DF0A4A8F0CF8CF0A428CE8DF0A42ED5
:10044B00FE22BC000BBE0029EF8DF084FFADF02225
:10045B00E4CCF875F008EF2FFFEE33FEEC33FCEE37
:10046B009DEC984005FCEE9DFE0FD5F0E9E4CEFD2A
:10047B0022EDF8F5F0EE8420D21CFEADF075F008FD
:10048B00EF2FFFED33FD4007985006D5F0F222C356
:10049B0098FD0FD5F0EA22C2D5EC30E709B2D5E4CE
:1004AB00C39DFDE49CFCEE30E715B2D5E4C39FFF82
:1004BB00E49EFE12044DC3E49DFDE49CFC800312FC
:1004CB00044D30D507C3E49FFFE49EFE22C5F0F830
:1004DB00A3E028F0C5F0F8E582158270021583E0E1
:1004EB0038F02275F008758200EF2FFFEE33FECD4A
:1004FB0033CDCC33CCC58233C5829BED9AEC99E5D9
:10050B008298400CF582EE9BFEED9AFDEC99FC0F68
:10051B00D5F0D6E4CEFBE4CDFAE4CCF9A88222B830
:10052B0000C1B90059BA002DEC8BF084CFCECDFCB5
:10053B00E5F0CBF97818EF2FFFEE33FEED33FDEC42
:10054B0033FCEB33FB10D703994004EB99FB0FD82B
:10055B00E5E4F9FA227818EF2FFFEE33FEED33FDC9
:10056B00EC33FCC933C910D7059BE99A4007EC9BC8
:10057B00FCE99AF90FD8E0E4C9FAE4CCFB2275F058
:10058B0010EF2FFFEE33FEED33FDCC33CCC833C869
:10059B0010D7079BEC9AE899400AED9BFDEC9AFC6F
:1005AB00E899F80FD5F0DAE4CDFBE4CCFAE4C8F91E
:1005BB0022C3E49FFFE49EFEE49DFDE49CFC22EB42
:1005CB009FF5F0EA9E42F0E99D42F0E89C45F0224F
:1005DB00E86010ECA2E713FCED13FDEE13FEEF1336
:1005EB00FFD8F022ECF0A3EDF0A3EEF0A3EFF02296
:1005FB00A8828583F0D083D08212061212061212C3
:10060B000612120612E473E493A3C583C5F0C583E7
:10061B00C8C582C8F0A3C583C5F0C583C8C582C849
:10062B0022A42582F582E5F03583F58322D083D091
:10063B0082F8E4937012740193700DA3A393F87472
:10064B000193F5828883E4737402936860EFA3A32C
:10065B00A380DFEC8EF0A4CCC5F0CCCDF8EFA4CE0C
:10066B00C5F02DFDE43CFCE8A42EC8C5F03DFDE42F
:10067B003CFCEFA4FFE5F028FEE43DFDE43CFC224E
:10068B009000C7E0D394005003020BFC900096E05F
:10069B00A3E09000C3F09000CEE090009EF0E490B9
:1006AB0000CAF09000CAE0FFC39405505F90009819
:1006BB00E0FE9000C3E0FDC39E405174982FF5827D
:1006CB00E43400F583E0FFEDC39F40239000CAE0C4
:1006DB002499F582E43400F583E0FFEDC39F500FBE
:1006EB009000CAE09000BCF0049000BAF0801D901E
:1006FB00009CE0FFEDC39F400B9000BC7403F09097
:10070B0000BA04F09000CAE004F08097E49000CAAD
:10071B00F09000A8E0FF90009EE0C39F503F900038
:10072B00BCE025E02404F582E43400F583E0FCA36F
:10073B00E0FDE41203299000D11205EF9000BAE01E
:10074B0025E02404F582E43400F583E0FCA3E0FD0E
:10075B00E41203299000D51205EF0209739000CA29
:10076B00E0FF24A8F582E43400F583E0FE90009EC0
:10077B00E0FDC39E500302091C74A92FF582E434DB
:10078B0000F583E0FFEDC39F400302091C9000CAF4
:10079B00E0FF75F00AA4240EF582E43400F583C063
:1007AB0083C0829000BCE0FED082D08375F0021231
:1007BB00062CE0A3E0FDEF75F00AA42404F582E417
:1007CB003400F58375F002EE12062CE0A3E0C39D16
:1007DB009000A0F09000CAE0FF75F00AA4240EF57B
:1007EB0082E43400F583C083C0829000BAE0FED06F
:1007FB0082D08375F00212062CE0A3E0FDEF75F0BA
:10080B000AA42404F582E43400F58375F002EE1299
:10081B00062CE0A3E0C39D90009DF09000CAE0245D
:10082B00A8F582E43400F583E0FF90009EE0C39FBF
:10083B00FFE49400FE9000A0E0FD7C0012043BACB2
:10084B0006AD07EC120329E4FBFAF9784012028794
:10085B00C004C005C006C0079000CAE075F00AA42A
:10086B002404F582E43400F583C083C0829000BC7D
:10087B00E0D082D08375F00212062CE0FCA3E0FDE1
:10088B00E4120329D003D002D001D00012008990CA
:10089B0000D11205EF9000CAE024A8F582E43400E1
:1008AB00F583E0FF90009EE0C39FFFE49400FE9071
:1008BB00009DE0FD7C0012043BAC06AD07EC12037F
:1008CB0029E4FBFAF97840120287C004C005C00680
:1008DB00C0079000CAE075F00AA42404F582E43442
:1008EB0000F583C083C0829000BAE0D082D08375BC
:1008FB00F00212062CE0FCA3E0FDE4120329D00366
:10090B00D002D001D0001200899000D51205EF80E3
:10091B00579000B5E0FF90009EE0C39F403C9000D5
:10092B00BCE025E02486F582E43400F583E0FCA3EB
:10093B00E0FDE41203299000D11205EF9000BAE01C
:10094B0025E02486F582E43400F583E0FCA3E0FD8A
:10095B00E41203299000D51205EF9000CAE004F0D1
:10096B00E0640E600302071C9000BCE02498F58243
:10097B00E43400F583E0FF9000C3E0C39FFDE494F3
:10098B0000FC120329C004C005C006C0079000D5A7
:10099B00E0F8A3E0F9A3E0FAA3E0FB9000D1E0FCC0
:1009AB00A3E0FDA3E0FEA3E0FF120089D003D00279
:1009BB00D001D00012017EE4FBFA79A0784012023C
:1009CB0087A804A905AA06AB079000D1E0FCA3E019
:1009DB00FDA3E0FEA3E0FF1200899000DF1205EFFC
:1009EB0090009EE0FF9000C7E0C39FFDE49400FCE5
:1009FB001203299000DFE0F8A3E0F9A3E0FAA3E0EB
:100A0B00FB12017EE4FBFA7920784112017EC004CF
:100A1B00C005C006C00790009EE0FFC374379FFD62
:100A2B00E49400FC120329A804A905AA06AB07D07D
:100A3B0007D006D005D0041202879000B61205EF3E
:100A4B009000B6E0FCA3E0FDA3E0FEA3E0FF1203E1
:100A5B00627C007D0A1204A2C3ED9405EC648094C1
:100A6B0080402FE4FBFA792078419000B6E0FCA39C
:100A7B00E0FDA3E0FEA3E0FF120287E4FBFA79801E
:100A8B00783F12008D120362900093EEF0A3EFF00B
:100A9B008023E4FBFA792078419000B6E0FCA3E0D8
:100AAB00FDA3E0FEA3E0FF12028712036290009306
:100ABB00EEF0A3EFF09000CEE0FF9000C7E0D39FE5
:100ACB004011900093E0FFA3E090017CCFF0A3EFE7
:100ADB00F08007E490017CF0A3F09000C7E0FF905A
:100AEB0000D0E0D39F401B90017CE0FEA3E0FF7C95
:100AFB00007D0912043B0D12044D90017CEEF0A316
:100B0B00EFF09000C7E0FF9000D0E0C39F400302DE
:100B1B000BAA9000C7E024F4FF9000D0E0C39F50D5
:100B2B0002D2039000C7E024FAFF9000D0E0C39FED
:100B3B00502130036A90017CE0FEA3E0FF7C007D36
:100B4B000E12043B7D0A12044D90017CEEF0A3EFD4
:100B5B00F0804C9000C7E014FF9000D0E0C39F5092
:100B6B002130033B90017CE0FEA3E0FF7C007D0C79
:100B7B0012043B7D0A12044D90017CEEF0A3EFF0C2
:100B8B00801DC20390017CE0FEA3E0FF7C007D0B87
:100B9B0012043B1D12044D90017CEEF0A3EFF0D339
:100BAB0090017DE094C890017CE094004006E4F055
:100BBB00A374C8F090017CE0FEA3E0FF7C007D0AEB
:100BCB0012044D90016EEFF090017CE0A3E0FF90DA
:100BDB00016EE075F00AA4FEC3EF9E900157F090F2
:100BEB00016EE0D3941440187414F0E4900157F0A4
:100BFB0022E490017CF0A3F090016EF0900157F08D
:100C0B0022121A191219E7121A2E121A3A121A4232
:100C1B001219D51219EF1219FD1219F6121A121216
:100C2B001A0B121A04120080121A4F121A61121A9E
:100C3B0058121A551200031219A97BFF7A1A796AF6
:100C4B007F0D7E007D007C001216DB900158E0B416
:100C5B000102E4F090015BE0B40102E4F090015C6E
:100C6B00E064016003020DCAF0900169E064017059
:100C7B003AF0121A3EEF24FD601B04702E9001789F
:100C8B00E0FEA3E0FF12005E9000BEEEF0A3EFF0DB
:100C9B001219DE8016900178E0FEA3E0FF12005ED1
:100CAB009000C1EEF0A3EFF01219D59000BEE0FE5C
:100CBB00A3E0FFD394E8EE94035009C3EF940AEE3C
:100CCB00940050099000C5E04420F080079000C5C7
:100CDB00E054DFF09000C1E0FEA3E0FFD394E8EE18
:100CEB0094035009C3EF940AEE940050099000C589
:100CFB00E04410F080079000C5E054EFF0C3900083
:100D0B00BFE094809000BEE0940150077401F0A303
:100D1B007480F0C39000C2E094809000C1E0940115
:100D2B0050077401F0A37480F09000BEE0FEA3E0C6
:100D3B00FF7B017A0079CE1217699000C1E0FEA308
:100D4B00E0FF7B017A0079D01217699000D0E0D3D5
:100D5B00943C40099000C5E04402F080079000C528
:100D6B00E054FDF09000E3E024FE60260470501286
:100D7B001A494015121A61121A559000C5E054BF5A
:100D8B00F0C202E04408F080369000C5E054F7F062
:100D9B00802D121A494021121A61E4900093F0A39E
:100DAB00F090017CF0A3F090016EF0900157F09061
:100DBB0000C5E04408F080079000C5E054F7F090C0
:100DCB000171E064016003020E82F0200503020E44
:100DDB00637B017A0079A17D021218339000A3E0A6
:100DEB006F70759000A1E09000CCF09000A2E090A5
:100DFB0000CDF0E09000C7F09000CCE030E00B901D
:100E0B0000E37401F0D201121A619000CCE030E1E2
:100E1B00089000E37402F0D2009000CCE030E20ABC
:100E2B00121A529000C5E04440F09000CCE030E341
:100E3B000A121A559000C5E054BFF09000C7E0703D
:100E4B0006900002F0800F9000C7E0D3940040069C
:100E5B009000027401F0C2059000E3E0147018E4F6
:100E6B00900093F0A3F090017CF0A3F090016EF052
:100E7B00900157F0121A61900172E064017035F025
:100E8B002007259000C5E09000A4F09000D0E090E2
:100E9B0000A5F07B017A0079A47D02121833900033
:100EAB00A6EFF0121A208006300703121A2743C050
:100EBB002053C0F7900155E064016003020F7BF0F3
:100ECB009000E3E024FE6006020F7B020F7B900094
:100EDB0002E0146020046003020F7BE4900093F0A7
:100EEB00A3F090017CF0A3F090016EF0900157F00D
:100EFB00121A61807B9000C5E020E110E020E20C2B
:100F0B00E020E308E020E404E030E5089000BD7445
:100F1B0001F08005E49000BDF09000BDE014603856
:100F2B0004704D121A494021121A61E4900093F09B
:100F3B00A3F090017CF0A3F090016EF0900157F0BC
:100F4B009000C5E04408F08027121A5E9000C5E0BF
:100F5B0054F7F012068B8018E4900093F0A3F090F6
:100F6B00017CF0A3F090016EF0900157F0121A6122
:100F7B00900167E064017066F0121A32900096EEF1
:100F8B00F0A3EFF0121A36C3900097E09414900080
:100F9B0096E0940050099000C5E04404F08007905F
:100FAB0000C5E054FBF09000CCE0FFE4FCFDFE122A
:100FBB0014CA7F0A1219359000CDE0FFE4FCFDFE48
:100FCB001214CA7F0A1219359000A3E0FFE4FCFD4E
:100FDB00FE1214CA7F0A1219357F0A1219359001B5
:100FEB0068E064016003020C56F0020C5622C0E06C
:100FFB00C0F0C083C082C0D075D000C000C001C09B
:10100B0002C003C004C005C006C007C09153C4EFA3
:10101B00900161E004F07006900160E004F0900133
:10102B00587401F0C3900161E09405900160E09465
:10103B00004018E4F0A3F090016BE004F070069010
:10104B00016AE004F090015B7401F0C390016BE066
:10105B00940290016AE094004018E4F0A3F0900130
:10106B006DE004F0700690016CE004F090015C748C
:10107B0001F0C390016DE0940590016CE094004089
:10108B0057E4F0A3F0900180E004F0700690017F2C
:10109B00E004F09001717401F030011E900090E0BB
:1010AB00C39411500B121A46900090E004F0800A82
:1010BB00C201900090E4F012008030001B9000D928
:1010CB00E0C3941E5008E004F0121A4C800AC200D0
:1010DB009000D9E4F0121A4FC3900180E094059070
:1010EB00017FE094004018E4F0A3F0900182E0044B
:1010FB00F07006900181E004F09001727401F0C36E
:10110B00900182E09402900181E094004018E4F099
:10111B00A3F090015FE004F0700690015EE004F034
:10112B009001837401F0C390015FE0940290015E23
:10113B00E094004018E4F0A3F0900163E004F07039
:10114B0006900162E004F09001557401F0C3900128
:10115B0063E09405900162E094004018E4F0A3F082
:10116B00900175E004F07006900174E004F09001BA
:10117B00677401F0C3900175E09402900174E094E0
:10118B00004018E4F0A3F0900177E004F0700690B3
:10119B000176E004F09001687401F090017EE004A8
:1011AB00F0E0C3943C4002E4F030041190016FE096
:1011BB00FF90017EE0B50705121A58C204D091D0FA
:1011CB0007D006D005D004D003D002D001D000D078
:1011DB00D0D082D083D0F0D0E032608C000400CD30
:1011EB00010E0122014A015E00C800F60113014500
:1011FB00016800C300EC0107013B015E00AF00E694
:10120B0001040122014000A000D200F0010E0136C2
:10121B00009600BE00E6010E0136008C00AF00D236
:10122B0000F00118008200A000BE00D200FA00738B
:10123B00009100B400CD00F0006E008700AA00BE44
:10124B0000DC00640078009600AA00BE0055006E1A
:10125B000082009600AA0041005F0073007D008CA5
:10126B000032004B005F00730087450098171C216C
:10127B00262B4E00A810121416181A1C1E202224FE
:10128B0026282A41009E174100C31A410095284188
:10129B0000CA00410091004100BB004100DE00414B
:1012AB0000E400410000004100A7004100C90041DB
:1012BB0000CB004100CF00410092004100C0004133
:1012CB0000C40042009600004200BE00004200C174
:1012DB0000004100010041009F004100C50041009A
:1012EB00E302410002004100BD00C1024100C60003
:1012FB004101580041015B0041015C00410171005B
:10130B00410172004101830041015500410156002A
:10131B004101670041016800420178000041016909
:10132B0000C10741015A0041015D0041017AA0C192
:10133B0005C106410173004101660041017E006059
:10134B007000E50353034C0345033E0336032E03A2
:10135B0027031F0316030E030602FD02F402EB0222
:10136B00E202DB02D302CA02C002B702AD02A30241
:10137B009A02900286027C02720268025E0253029B
:10138B0049023F0235022B02210217020D02030113
:10139B00F901EF01E501DB01D201C801BF01B50184
:1013AB00AC01A3019A0191018801800177016F01C2
:1013BB0066015E00C0E0C083C082C0D075D000C0A3
:1013CB0000C007C091759100E5C020E3030214BB78
:1013DB00AFBDEF120638140600140C08141B1814BA
:1013EB002420142A28146330146838146D401472A6
:1013FB0048147A5014A858000014B843C0100214B3
:10140B00B890017AE0F5BC53C0DF53C0F70214B8B3
:10141B009000A4E0F5BC0214B843C0100214B890BD
:10142B00015DE0700E9000A5E0F5BC90015D7401CC
:10143B00F0807A90015DE0B4010E9000A6E0F5BC5F
:10144B0090015D7402F0806590015DE06402705D57
:10145B0043C010F0D207805543C010805043C010DA
:10146B00804B43C004804643C01043C004803E9071
:10147B00015AE070119000A1E5BCF090015A740183
:10148B00F043C004802790015AE0B401209000A2E1
:10149B00E5BCF090015AE4F053C0FB80109000A320
:1014AB00E5BCF0C207D20543C01043C00453C0F7DC
:1014BB00D091D007D000D0D0D082D083D0E0329062
:1014CB0001841205EFE4FF7BE87A03F9F8900184BD
:1014DB00E0FCA3E0FDA3E0FEA3E0FF12052AEF244E
:1014EB0030FF1219357FC87E001217D2E47BE87AE1
:1014FB0003F9F8900184E0FCA3E0FDA3E0FEA3E078
:10150B00FF12052AAC00AD01AE02AF03E47B64FA17
:10151B00F9F812052AEF2430FF1219357FC87E0027
:10152B001217D2E47B64FAF9F8900184E0FCA3E093
:10153B00FDA3E0FEA3E0FF12052AAC00AD01AE0255
:10154B00AF03E47B0AFAF9F812052AEF2430FF12F5
:10155B0019357FC87E001217D2E47B0AFAF9F8908E
:10156B000184E0FCA3E0FDA3E0FEA3E0FF12052A4B
:10157B00AF03EF2430FF1219357FC87E001217D24C
:10158B0022C0E0C0F0C083C082C0D075D000C000C4
:10159B00C001C002C003C004C005C006C007C09193
:1015AB00900170E0C394135005E004F08018900193
:1015BB0070E4F0900159E0C394095005E004F08009
:1015CB0005900159E4F0900157E0FF900159E0C3F9
:1015DB009F501390016EE00490017BF0E094144057
:1015EB000D7414F0800890016EE090017BF0D390A5
:1015FB00017DE0940090017CE09400401990017B08
:10160B00E0FF900170E09F500D121A5BD204900125
:10161B007EE090016FF075EC00D091D007D006D032
:10162B0005D004D003D002D001D000D0D0D082D0CE
:10163B0083D0F0D0E032787FE4F6D8FD9000007FC5
:10164B00FF7E04E4F0A3DFFCDEFA75812002169620
:10165B00020C0CE493A3F8E493A34003F68001F28D
:10166B0008DFF48029E493A3F85407240CC8C33390
:10167B00C4540F4420C8834004F456800146F6DF5F
:10168B00E4800B01020408102040809011E5E47EF9
:10169B00019360BCA3FF543F30E509541FFEE49354
:1016AB00A360010ECF54C025E060A840B8E493A31B
:1016BB00FAE493A3F8E493A3C8C582C8CAC583CA46
:1016CB00F0A3C8C582C8CAC583CADFE9DEE780BEFE
:1016DB00900184EBF0A3EAF0A3E9F0A31205EF90DD
:1016EB00018B1205FB0000000090018B1205FB0023
:1016FB00000000900187E0FCA3E0FDA3E0FEA3E067
:10170B00FFA3E0F8A3E0F9A3E0FAA3E0FBC3120503
:10171B00CA504A90018BE0A3E0A3E0FEA3E0FF9048
:10172B000184E0FBA3E0FAA3E0F98F828E8312031E
:10173B00FCFF1219357FC87E001217D290018BE087
:10174B00FCA3E0FDA3E0FEA3E02401FFE43EFEE4E6
:10175B003DFDE43CFC90018B1205EF80962290013D
:10176B0084EBF0A3EAF0A3E9F0C39000E6E09F90CE
:10177B0000E5E09E400DD3900154E09F900153E0B3
:10178B009E4011900184E0FBA3E0FAA3E0F9E41280
:10179B000429FF227D01ED25E024E5F582E43400E8
:1017AB00F583E0FAA3E0D39FEA9E40050DEDB43834
:1017BB00E5ED240AFF900184E0FBA3E0FAA3E0F936
:1017CB00EF1204297F0122900191EEF0A3EFF04379
:1017DB00C920900191E0FEA3E0FFFBE4C374FF9BE3
:1017EB00FF74FF9EFEE49400FDE49400FCEFE48F95
:1017FB00CC900191E0FEA3E0FFFBE4C374FF9BFFE1
:10180B0074FF9EFEE49400FDE49400FC780812053E
:10181B00DB8FCD43C804E5C8C4131313540130E068
:10182B00F553C87F53C8FB22900184EBF0A3EAF079
:10183B00A3E9F0A3EDF0E4A3F0FC900187E0FFEC4B
:10184B00C39F503A900184E0FBA3E0FAA3E0F912A6
:10185B0003E3FF7E08900188E0FD6F5401FBEDC3AD
:10186B0013F0AD03ED6004E0648CF0EFC313FFDE07
:10187B00E4900185E475F0011204D80C80BC900152
:10188B0088E0FF22900184EEF0A3EFF043C40490B4
:10189B000184E0FEA3E0FFFBE4C374FF9BFF74FF36
:1018AB009EFEE49400FDE49400FCEFE48FC59001F0
:1018BB0084E0FEA3E0FFFBE4C374FF9BFF74FF9E79
:1018CB00FEE49400FDE49400FC78081205DB8FC65F
:1018DB00439C0243A88043C40822C0E0C0F0C083ED
:1018EB00C082C0D075D000C000C001C002C003C010
:1018FB0004C005C006C007C09153E87F12197C9045
:10190B000178EEF0A3EFF09001697401F0D091D063
:10191B0007D006D005D004D003D002D001D000D020
:10192B00D0D082D083D0F0D0E03290018FEFF01284
:10193B001A677F517E001217D2E4900190F090014C
:10194B008FE030E005121A648003121A677F517E14
:10195B00001217D290018FE0FFC313F0A3E004F045
:10196B00E0C3940840D8121A647F517E001217D23C
:10197B0022E4FFAFC3EF75F010A4FFAEF0E5C25445
:10198B000FFDE5F0EF4DFF2253B1FE53B2FE43893D
:10199B004053897F4389105389DF4388402253E9A1
:1019AB00FE53E9FD43E90843EA02439B0243A88047
:1019BB002243E10153E1EF53E1DF43A84043A88009
:1019CB002253E8F0EF540F42E8227F021219CC1297
:1019DB000036227F031219CC120036227FC87E00FC
:1019EB0012188F2253B3FB43B4042243B11053B2EA
:1019FB00EF2253B3FD43B4022253B1DF43B2202293
:101A0B0053B37F43B4802253B1F743B2082253B38D
:101A1B00BF43B4402290017A74A0F02290017A74F3
:101A2B00A1F0221219932212003E2212002522123B
:101A3B0019BC22120055221219BC22B29222A28486
:101A4B0022D29122C29122D28522C28522D2972202
:101A5B00C29722D28322C28322D29622C296226CB2
:0B1A6B00652064616E682068757900DA
:00000001FF
